{
  "abi": [
    {
      "type": "constructor",
      "inputs": [],
      "stateMutability": "nonpayable"
    },
    {
      "type": "function",
      "name": "addBingoBoard",
      "inputs": [
        {
          "name": "items",
          "type": "tuple[]",
          "internalType": "struct BingoBadge.BingoItem[]",
          "components": [
            {
              "name": "data",
              "type": "string",
              "internalType": "string"
            },
            {
              "name": "completed",
              "type": "bool",
              "internalType": "bool"
            }
          ]
        },
        {
          "name": "s1",
          "type": "string",
          "internalType": "string"
        },
        {
          "name": "s2",
          "type": "string",
          "internalType": "string"
        },
        {
          "name": "s3",
          "type": "string",
          "internalType": "string"
        },
        {
          "name": "s4",
          "type": "string",
          "internalType": "string"
        },
        {
          "name": "done",
          "type": "string",
          "internalType": "string"
        }
      ],
      "outputs": [],
      "stateMutability": "nonpayable"
    },
    {
      "type": "function",
      "name": "addUser",
      "inputs": [],
      "outputs": [],
      "stateMutability": "nonpayable"
    },
    {
      "type": "function",
      "name": "approve",
      "inputs": [
        {
          "name": "to",
          "type": "address",
          "internalType": "address"
        },
        {
          "name": "tokenId",
          "type": "uint256",
          "internalType": "uint256"
        }
      ],
      "outputs": [],
      "stateMutability": "nonpayable"
    },
    {
      "type": "function",
      "name": "assignBoardToUser",
      "inputs": [
        {
          "name": "boardIndex",
          "type": "uint256",
          "internalType": "uint256"
        }
      ],
      "outputs": [],
      "stateMutability": "nonpayable"
    },
    {
      "type": "function",
      "name": "balanceOf",
      "inputs": [
        {
          "name": "owner",
          "type": "address",
          "internalType": "address"
        }
      ],
      "outputs": [
        {
          "name": "",
          "type": "uint256",
          "internalType": "uint256"
        }
      ],
      "stateMutability": "view"
    },
    {
      "type": "function",
      "name": "bingoBoards",
      "inputs": [
        {
          "name": "",
          "type": "uint256",
          "internalType": "uint256"
        }
      ],
      "outputs": [
        {
          "name": "stage1_url",
          "type": "string",
          "internalType": "string"
        },
        {
          "name": "stage2_url",
          "type": "string",
          "internalType": "string"
        },
        {
          "name": "stage3_url",
          "type": "string",
          "internalType": "string"
        },
        {
          "name": "stage4_url",
          "type": "string",
          "internalType": "string"
        },
        {
          "name": "completed_url",
          "type": "string",
          "internalType": "string"
        }
      ],
      "stateMutability": "view"
    },
    {
      "type": "function",
      "name": "checkMemberExists",
      "inputs": [
        {
          "name": "userAddress",
          "type": "address",
          "internalType": "address"
        }
      ],
      "outputs": [
        {
          "name": "",
          "type": "bool",
          "internalType": "bool"
        }
      ],
      "stateMutability": "view"
    },
    {
      "type": "function",
      "name": "getApproved",
      "inputs": [
        {
          "name": "tokenId",
          "type": "uint256",
          "internalType": "uint256"
        }
      ],
      "outputs": [
        {
          "name": "",
          "type": "address",
          "internalType": "address"
        }
      ],
      "stateMutability": "view"
    },
    {
      "type": "function",
      "name": "getBingoBoard",
      "inputs": [
        {
          "name": "boardIndex",
          "type": "uint256",
          "internalType": "uint256"
        }
      ],
      "outputs": [
        {
          "name": "",
          "type": "tuple",
          "internalType": "struct BingoBadge.BingoBoard",
          "components": [
            {
              "name": "items",
              "type": "tuple[]",
              "internalType": "struct BingoBadge.BingoItem[]",
              "components": [
                {
                  "name": "data",
                  "type": "string",
                  "internalType": "string"
                },
                {
                  "name": "completed",
                  "type": "bool",
                  "internalType": "bool"
                }
              ]
            },
            {
              "name": "stage1_url",
              "type": "string",
              "internalType": "string"
            },
            {
              "name": "stage2_url",
              "type": "string",
              "internalType": "string"
            },
            {
              "name": "stage3_url",
              "type": "string",
              "internalType": "string"
            },
            {
              "name": "stage4_url",
              "type": "string",
              "internalType": "string"
            },
            {
              "name": "completed_url",
              "type": "string",
              "internalType": "string"
            }
          ]
        }
      ],
      "stateMutability": "view"
    },
    {
      "type": "function",
      "name": "getMemberList",
      "inputs": [],
      "outputs": [
        {
          "name": "",
          "type": "address[]",
          "internalType": "address[]"
        }
      ],
      "stateMutability": "view"
    },
    {
      "type": "function",
      "name": "getUserBingoBoard",
      "inputs": [
        {
          "name": "boardIndex",
          "type": "uint256",
          "internalType": "uint256"
        }
      ],
      "outputs": [
        {
          "name": "",
          "type": "bool[25]",
          "internalType": "bool[25]"
        }
      ],
      "stateMutability": "view"
    },
    {
      "type": "function",
      "name": "getUserBoardStatus",
      "inputs": [
        {
          "name": "boardIndex",
          "type": "uint256",
          "internalType": "uint256"
        }
      ],
      "outputs": [
        {
          "name": "",
          "type": "bool[25]",
          "internalType": "bool[25]"
        }
      ],
      "stateMutability": "view"
    },
    {
      "type": "function",
      "name": "getUserTokenURI",
      "inputs": [
        {
          "name": "boardIndex",
          "type": "uint256",
          "internalType": "uint256"
        }
      ],
      "outputs": [
        {
          "name": "",
          "type": "string",
          "internalType": "string"
        }
      ],
      "stateMutability": "view"
    },
    {
      "type": "function",
      "name": "isApprovedForAll",
      "inputs": [
        {
          "name": "owner",
          "type": "address",
          "internalType": "address"
        },
        {
          "name": "operator",
          "type": "address",
          "internalType": "address"
        }
      ],
      "outputs": [
        {
          "name": "",
          "type": "bool",
          "internalType": "bool"
        }
      ],
      "stateMutability": "view"
    },
    {
      "type": "function",
      "name": "markItemCompleted",
      "inputs": [
        {
          "name": "userBoardIndex",
          "type": "uint256",
          "internalType": "uint256"
        },
        {
          "name": "itemIndex",
          "type": "uint256",
          "internalType": "uint256"
        }
      ],
      "outputs": [],
      "stateMutability": "nonpayable"
    },
    {
      "type": "function",
      "name": "memberList",
      "inputs": [
        {
          "name": "",
          "type": "uint256",
          "internalType": "uint256"
        }
      ],
      "outputs": [
        {
          "name": "",
          "type": "address",
          "internalType": "address"
        }
      ],
      "stateMutability": "view"
    },
    {
      "type": "function",
      "name": "name",
      "inputs": [],
      "outputs": [
        {
          "name": "",
          "type": "string",
          "internalType": "string"
        }
      ],
      "stateMutability": "view"
    },
    {
      "type": "function",
      "name": "nextTokenId",
      "inputs": [],
      "outputs": [
        {
          "name": "",
          "type": "uint256",
          "internalType": "uint256"
        }
      ],
      "stateMutability": "view"
    },
    {
      "type": "function",
      "name": "owner",
      "inputs": [],
      "outputs": [
        {
          "name": "",
          "type": "address",
          "internalType": "address"
        }
      ],
      "stateMutability": "view"
    },
    {
      "type": "function",
      "name": "ownerOf",
      "inputs": [
        {
          "name": "tokenId",
          "type": "uint256",
          "internalType": "uint256"
        }
      ],
      "outputs": [
        {
          "name": "",
          "type": "address",
          "internalType": "address"
        }
      ],
      "stateMutability": "view"
    },
    {
      "type": "function",
      "name": "renounceOwnership",
      "inputs": [],
      "outputs": [],
      "stateMutability": "nonpayable"
    },
    {
      "type": "function",
      "name": "safeTransferFrom",
      "inputs": [
        {
          "name": "from",
          "type": "address",
          "internalType": "address"
        },
        {
          "name": "to",
          "type": "address",
          "internalType": "address"
        },
        {
          "name": "tokenId",
          "type": "uint256",
          "internalType": "uint256"
        }
      ],
      "outputs": [],
      "stateMutability": "nonpayable"
    },
    {
      "type": "function",
      "name": "safeTransferFrom",
      "inputs": [
        {
          "name": "from",
          "type": "address",
          "internalType": "address"
        },
        {
          "name": "to",
          "type": "address",
          "internalType": "address"
        },
        {
          "name": "tokenId",
          "type": "uint256",
          "internalType": "uint256"
        },
        {
          "name": "data",
          "type": "bytes",
          "internalType": "bytes"
        }
      ],
      "outputs": [],
      "stateMutability": "nonpayable"
    },
    {
      "type": "function",
      "name": "setApprovalForAll",
      "inputs": [
        {
          "name": "operator",
          "type": "address",
          "internalType": "address"
        },
        {
          "name": "approved",
          "type": "bool",
          "internalType": "bool"
        }
      ],
      "outputs": [],
      "stateMutability": "nonpayable"
    },
    {
      "type": "function",
      "name": "supportsInterface",
      "inputs": [
        {
          "name": "interfaceId",
          "type": "bytes4",
          "internalType": "bytes4"
        }
      ],
      "outputs": [
        {
          "name": "",
          "type": "bool",
          "internalType": "bool"
        }
      ],
      "stateMutability": "view"
    },
    {
      "type": "function",
      "name": "symbol",
      "inputs": [],
      "outputs": [
        {
          "name": "",
          "type": "string",
          "internalType": "string"
        }
      ],
      "stateMutability": "view"
    },
    {
      "type": "function",
      "name": "tokenURI",
      "inputs": [
        {
          "name": "tokenId",
          "type": "uint256",
          "internalType": "uint256"
        }
      ],
      "outputs": [
        {
          "name": "",
          "type": "string",
          "internalType": "string"
        }
      ],
      "stateMutability": "view"
    },
    {
      "type": "function",
      "name": "transferFrom",
      "inputs": [
        {
          "name": "from",
          "type": "address",
          "internalType": "address"
        },
        {
          "name": "to",
          "type": "address",
          "internalType": "address"
        },
        {
          "name": "tokenId",
          "type": "uint256",
          "internalType": "uint256"
        }
      ],
      "outputs": [],
      "stateMutability": "nonpayable"
    },
    {
      "type": "function",
      "name": "transferOwnership",
      "inputs": [
        {
          "name": "newOwner",
          "type": "address",
          "internalType": "address"
        }
      ],
      "outputs": [],
      "stateMutability": "nonpayable"
    },
    {
      "type": "function",
      "name": "users",
      "inputs": [
        {
          "name": "",
          "type": "address",
          "internalType": "address"
        }
      ],
      "outputs": [
        {
          "name": "userAddress",
          "type": "address",
          "internalType": "address"
        },
        {
          "name": "boardCount",
          "type": "uint256",
          "internalType": "uint256"
        }
      ],
      "stateMutability": "view"
    },
    {
      "type": "event",
      "name": "Approval",
      "inputs": [
        {
          "name": "owner",
          "type": "address",
          "indexed": true,
          "internalType": "address"
        },
        {
          "name": "approved",
          "type": "address",
          "indexed": true,
          "internalType": "address"
        },
        {
          "name": "tokenId",
          "type": "uint256",
          "indexed": true,
          "internalType": "uint256"
        }
      ],
      "anonymous": false
    },
    {
      "type": "event",
      "name": "ApprovalForAll",
      "inputs": [
        {
          "name": "owner",
          "type": "address",
          "indexed": true,
          "internalType": "address"
        },
        {
          "name": "operator",
          "type": "address",
          "indexed": true,
          "internalType": "address"
        },
        {
          "name": "approved",
          "type": "bool",
          "indexed": false,
          "internalType": "bool"
        }
      ],
      "anonymous": false
    },
    {
      "type": "event",
      "name": "BatchMetadataUpdate",
      "inputs": [
        {
          "name": "_fromTokenId",
          "type": "uint256",
          "indexed": false,
          "internalType": "uint256"
        },
        {
          "name": "_toTokenId",
          "type": "uint256",
          "indexed": false,
          "internalType": "uint256"
        }
      ],
      "anonymous": false
    },
    {
      "type": "event",
      "name": "MetadataUpdate",
      "inputs": [
        {
          "name": "_tokenId",
          "type": "uint256",
          "indexed": false,
          "internalType": "uint256"
        }
      ],
      "anonymous": false
    },
    {
      "type": "event",
      "name": "OwnershipTransferred",
      "inputs": [
        {
          "name": "previousOwner",
          "type": "address",
          "indexed": true,
          "internalType": "address"
        },
        {
          "name": "newOwner",
          "type": "address",
          "indexed": true,
          "internalType": "address"
        }
      ],
      "anonymous": false
    },
    {
      "type": "event",
      "name": "Transfer",
      "inputs": [
        {
          "name": "from",
          "type": "address",
          "indexed": true,
          "internalType": "address"
        },
        {
          "name": "to",
          "type": "address",
          "indexed": true,
          "internalType": "address"
        },
        {
          "name": "tokenId",
          "type": "uint256",
          "indexed": true,
          "internalType": "uint256"
        }
      ],
      "anonymous": false
    },
    {
      "type": "error",
      "name": "Actions",
      "inputs": [
        {
          "name": "message",
          "type": "string",
          "internalType": "string"
        }
      ]
    },
    {
      "type": "error",
      "name": "ERC721IncorrectOwner",
      "inputs": [
        {
          "name": "sender",
          "type": "address",
          "internalType": "address"
        },
        {
          "name": "tokenId",
          "type": "uint256",
          "internalType": "uint256"
        },
        {
          "name": "owner",
          "type": "address",
          "internalType": "address"
        }
      ]
    },
    {
      "type": "error",
      "name": "ERC721InsufficientApproval",
      "inputs": [
        {
          "name": "operator",
          "type": "address",
          "internalType": "address"
        },
        {
          "name": "tokenId",
          "type": "uint256",
          "internalType": "uint256"
        }
      ]
    },
    {
      "type": "error",
      "name": "ERC721InvalidApprover",
      "inputs": [
        {
          "name": "approver",
          "type": "address",
          "internalType": "address"
        }
      ]
    },
    {
      "type": "error",
      "name": "ERC721InvalidOperator",
      "inputs": [
        {
          "name": "operator",
          "type": "address",
          "internalType": "address"
        }
      ]
    },
    {
      "type": "error",
      "name": "ERC721InvalidOwner",
      "inputs": [
        {
          "name": "owner",
          "type": "address",
          "internalType": "address"
        }
      ]
    },
    {
      "type": "error",
      "name": "ERC721InvalidReceiver",
      "inputs": [
        {
          "name": "receiver",
          "type": "address",
          "internalType": "address"
        }
      ]
    },
    {
      "type": "error",
      "name": "ERC721InvalidSender",
      "inputs": [
        {
          "name": "sender",
          "type": "address",
          "internalType": "address"
        }
      ]
    },
    {
      "type": "error",
      "name": "ERC721NonexistentToken",
      "inputs": [
        {
          "name": "tokenId",
          "type": "uint256",
          "internalType": "uint256"
        }
      ]
    },
    {
      "type": "error",
      "name": "OwnableInvalidOwner",
      "inputs": [
        {
          "name": "owner",
          "type": "address",
          "internalType": "address"
        }
      ]
    },
    {
      "type": "error",
      "name": "OwnableUnauthorizedAccount",
      "inputs": [
        {
          "name": "account",
          "type": "address",
          "internalType": "address"
        }
      ]
    }
  ],
  "bytecode": {
    "object": "0x60806040523461002757610011611143565b61001961002c565b6150d56119c182396150d590f35b610032565b60405190565b5f80fd5b601f801991011690565b634e487b7160e01b5f52604160045260245ffd5b9061005e90610036565b810190811060018060401b0382111761007657604052565b610040565b9061008e61008761002c565b9283610054565b565b60018060401b0381116100ac576100a8602091610036565b0190565b610040565b906100c36100be83610090565b61007b565b918252565b5f7f446576335061636b42696e676f42616467650000000000000000000000000000910152565b6100f960126100b1565b90610106602083016100c8565b565b6101106100ef565b90565b5f7f4433420000000000000000000000000000000000000000000000000000000000910152565b61014460036100b1565b9061015160208301610113565b565b61015b61013a565b90565b90565b5490565b634e487b7160e01b5f52603260045260245ffd5b5f5260205f2090565b5f5260205f2090565b61019481610161565b8210156101ae576101a6600691610179565b910201905f90565b610165565b6101bc81610161565b680100000000000000008110156101e0576101dc9160018201815561018b565b9091565b610040565b5490565b90565b90565b90565b61020661020161020b926101e9565b6101ef565b6101ec565b90565b634e487b7160e01b5f52601160045260245ffd5b610231610237919392936101ec565b926101ec565b820391821161024257565b61020e565b5f5260205f2090565b610259816101e5565b8210156102735761026b600691610247565b910201905f90565b610165565b90565b90565b610288604061007b565b90565b5f7f537065656472756e20457468657265756d000000000000000000000000000000910152565b6102bc60116100b1565b906102c96020830161028b565b565b6102d36102b2565b90565b52565b151590565b906102e8906102d9565b9052565b5f5260205f2090565b5490565b610302816102f5565b82101561031c576103146002916102ec565b910201905f90565b610165565b634e487b7160e01b5f525f60045260245ffd5b5190565b5190565b634e487b7160e01b5f52602260045260245ffd5b9060016002830492168015610370575b602083101461036b57565b61033c565b91607f1691610360565b5f5260205f2090565b601f602091010490565b1b90565b919060086103ac9102916103a65f198461038d565b9261038d565b9181191691161790565b6103ca6103c56103cf926101ec565b6101ef565b6101ec565b90565b90565b91906103eb6103e66103f3936103b6565b6103d2565b908354610391565b9055565b5f90565b61040d916104076103f7565b916103d5565b565b5b81811061041b575050565b806104285f6001936103fb565b01610410565b9190601f811161043e575b505050565b61044a61046f9361037a565b90602061045684610383565b83019310610477575b61046890610383565b019061040f565b5f8080610439565b91506104688192905061045f565b1c90565b90610499905f1990600802610485565b191690565b816104a891610489565b906002021790565b906104ba81610338565b9060018060401b038211610578576104dc826104d68554610350565b8561042e565b602090601f8311600114610510579180916104ff935f92610504575b505061049e565b90555b565b90915001515f806104f8565b601f1983169161051f8561037a565b925f5b81811061056057509160029391856001969410610546575b50505002019055610502565b610556910151601f841690610489565b90555f808061053a565b91936020600181928787015181550195019201610522565b610040565b90610587916104b0565b565b61059390516102d9565b90565b5f1b90565b906105a760ff91610596565b9181191691161790565b6105ba906102d9565b90565b90565b906105d56105d06105dc926105b1565b6105bd565b825461059b565b9055565b9061060b60206001610611946106035f82016105fd5f8801610334565b9061057d565b019201610589565b906105c0565b565b919061062457610622916105e0565b565b610321565b90815491680100000000000000008310156106595782610651916001610657950181556102f9565b90610613565b565b610040565b5f7f4261736520426174636865730000000000000000000000000000000000000000910152565b61068f600c6100b1565b9061069c6020830161065e565b565b6106a6610685565b90565b60207f726f7567682047697448756220757365726e616d652900000000000000000000917f4f6e6c7920447573742070726f66696c65202863616e207665726966792074685f8201520152565b61070060366100b1565b9061070d602083016106a9565b565b6107176106f6565b90565b5f7f43796672696e20536f6c69646974792031303100000000000000000000000000910152565b61074b60136100b1565b906107586020830161071a565b565b610762610741565b90565b5f7f43656c6f2050726f6f66206f6620536869700000000000000000000000000000910152565b61079660126100b1565b906107a360208301610765565b565b6107ad61078c565b90565b5f7f556e697377617020486f6f6b20496e63756261746f7200000000000000000000910152565b6107e160166100b1565b906107ee602083016107b0565b565b6107f86107d7565b90565b5f7f4c65646765720000000000000000000000000000000000000000000000000000910152565b61082c60066100b1565b90610839602083016107fb565b565b610843610822565b90565b5f7f5368654669205363686f6c617200000000000000000000000000000000000000910152565b610877600d6100b1565b9061088460208301610846565b565b61088e61086d565b90565b5f7f436f696e626173652057616c6c65740000000000000000000000000000000000910152565b6108c2600f6100b1565b906108cf60208301610891565b565b6108d96108b8565b90565b5f7f4661726361737465720000000000000000000000000000000000000000000000910152565b61090d60096100b1565b9061091a602083016108dc565b565b610924610903565b90565b5f7f33302064617973206f66206275696c64696e67206f6e20536f6c696469747900910152565b610958601f6100b1565b9061096560208301610927565b565b61096f61094e565b90565b5f7f4275696c6465722073636f7265203e2036300000000000000000000000000000910152565b6109a360126100b1565b906109b060208301610972565b565b6109ba610999565b90565b5f7f426520616d6261737361646f7200000000000000000000000000000000000000910152565b6109ee600d6100b1565b906109fb602083016109bd565b565b610a056109e4565b90565b5f7f455448476c6f62616c0000000000000000000000000000000000000000000000910152565b610a3960096100b1565b90610a4660208301610a08565b565b610a50610a2f565b90565b5f7f446576636f6e20617474656e6465650000000000000000000000000000000000910152565b610a84600f6100b1565b90610a9160208301610a53565b565b610a9b610a7a565b90565b5f7f45544844656e766572207061727469636970616e740000000000000000000000910152565b610acf60156100b1565b90610adc60208301610a9e565b565b610ae6610ac5565b90565b5f7f4861636b6174686f6e2077696e6e65722028616e7920455448206576656e7429910152565b610b1a60206100b1565b90610b2760208301610ae9565b565b610b31610b10565b90565b5f7f417474656e64656420616e20457468657265756d206d65657475700000000000910152565b610b65601b6100b1565b90610b7260208301610b34565b565b610b7c610b5b565b90565b60207f736f75726365207265706f000000000000000000000000000000000000000000917f436f6e747269627574656420746f20616e20457468657265756d206f70656e205f8201520152565b610bd6602b6100b1565b90610be360208301610b7f565b565b610bed610bcc565b90565b5f7f50617274696369706174656420696e20612044414f20766f7465000000000000910152565b610c21601a6100b1565b90610c2e60208301610bf0565b565b610c38610c17565b90565b60207f6e6e657400000000000000000000000000000000000000000000000000000000917f4465706c6f796564206120736d61727420636f6e7472616374206f6e206d61695f8201520152565b610c9260246100b1565b90610c9f60208301610c3b565b565b610ca9610c88565b90565b5f7f5573656420454e5320666f722061207472616e73616374696f6e000000000000910152565b610cdd601a6100b1565b90610cea60208301610cac565b565b610cf4610cd3565b90565b5f7f4272696467656420617373657473206265747765656e204c3273000000000000910152565b610d28601a6100b1565b90610d3560208301610cf7565b565b610d3f610d1e565b90565b5f7f4d696e74656420616e204e4654206f6e20457468657265756d00000000000000910152565b610d7360196100b1565b90610d8060208301610d42565b565b610d8a610d69565b90565b5f7f557365642061207a6b2d726f6c6c757020644170700000000000000000000000910152565b610dbe60156100b1565b90610dcb60208301610d8d565b565b610dd5610db4565b90565b9190601f8111610de8575b505050565b610df4610e1993610182565b906020610e0084610383565b83019310610e21575b610e1290610383565b019061040f565b5f8080610de3565b9150610e1281929050610e09565b6003610e747f77626d000000000000000000000000000000000000000000000000000000000092610e6b6063610e658354610350565b83610dd8565b60c78155610182565b7f68747470733a2f2f676174657761792e6c69676874686f7573652e73746f72615f8201557f67652f697066732f6261666b7265696373367737633279356a7064787464646d60018201557f6d767037347969333468376f63613737623764793661633562727a3632327a7660028201550155565b610ef290610e2f565b565b6003610f397f6e6965000000000000000000000000000000000000000000000000000000000092610f306063610f2a8354610350565b83610dd8565b60c78155610182565b7f68747470733a2f2f676174657761792e6c69676874686f7573652e73746f72615f8201557f67652f697066732f6261666b72656963627676356d65766a376b64786267676360018201557f6f366b3375616c6e626d626170797062626a767769726471616a72627573633360028201550155565b610fb790610ef4565b565b6003610ffe7f776234000000000000000000000000000000000000000000000000000000000092610ff56063610fef8354610350565b83610dd8565b60c78155610182565b7f68747470733a2f2f676174657761792e6c69676874686f7573652e73746f72615f8201557f67652f697066732f6261666b726569616d366537616133736f7079746563336e60018201557f796136697a376b3762773467646f706973726d76716f626f68377a356a71697060028201550155565b61107c90610fb9565b565b60036110c37f33686d0000000000000000000000000000000000000000000000000000000000926110ba60636110b48354610350565b83610dd8565b60c78155610182565b7f68747470733a2f2f676174657761792e6c69676874686f7573652e73746f72615f8201557f67652f697066732f6261666b7265696335333376626361636c7378326734776760018201557f66677a6f3537633669616e7969637a72783379667363336f66333536627a347760028201550155565b6111419061107e565b565b61115d3361114f610108565b611157610153565b91611838565b61116f61116a600961015e565b6101b3565b50506117d260056111a76111a1600961119b61118b60096101e5565b61119560016101f2565b90610222565b90610250565b50610278565b6111e46111b55f830161027b565b5f906111df6111c261027e565b926111d66111ce6102cb565b5f86016102d6565b602084016102de565b610629565b6112216111f25f830161027b565b5f9061121c6111ff61027e565b9261121361120b61069e565b5f86016102d6565b602084016102de565b610629565b61125e61122f5f830161027b565b5f9061125961123c61027e565b9261125061124861070f565b5f86016102d6565b602084016102de565b610629565b61129b61126c5f830161027b565b5f9061129661127961027e565b9261128d61128561075a565b5f86016102d6565b602084016102de565b610629565b6112d86112a95f830161027b565b5f906112d36112b661027e565b926112ca6112c26107a5565b5f86016102d6565b602084016102de565b610629565b6113156112e65f830161027b565b5f906113106112f361027e565b926113076112ff6107f0565b5f86016102d6565b602084016102de565b610629565b6113526113235f830161027b565b5f9061134d61133061027e565b9261134461133c61083b565b5f86016102d6565b602084016102de565b610629565b61138f6113605f830161027b565b5f9061138a61136d61027e565b92611381611379610886565b5f86016102d6565b602084016102de565b610629565b6113cc61139d5f830161027b565b5f906113c76113aa61027e565b926113be6113b66108d1565b5f86016102d6565b602084016102de565b610629565b6114096113da5f830161027b565b5f906114046113e761027e565b926113fb6113f361091c565b5f86016102d6565b602084016102de565b610629565b6114466114175f830161027b565b5f9061144161142461027e565b92611438611430610967565b5f86016102d6565b602084016102de565b610629565b6114836114545f830161027b565b5f9061147e61146161027e565b9261147561146d6109b2565b5f86016102d6565b602084016102de565b610629565b6114c06114915f830161027b565b5f906114bb61149e61027e565b926114b26114aa6109fd565b5f86016102d6565b602084016102de565b610629565b6114fd6114ce5f830161027b565b5f906114f86114db61027e565b926114ef6114e7610a48565b5f86016102d6565b602084016102de565b610629565b61153a61150b5f830161027b565b5f9061153561151861027e565b9261152c611524610a93565b5f86016102d6565b602084016102de565b610629565b6115776115485f830161027b565b5f9061157261155561027e565b92611569611561610ade565b5f86016102d6565b602084016102de565b610629565b6115b46115855f830161027b565b5f906115af61159261027e565b926115a661159e610b29565b5f86016102d6565b602084016102de565b610629565b6115f16115c25f830161027b565b5f906115ec6115cf61027e565b926115e36115db610b74565b5f86016102d6565b602084016102de565b610629565b61162e6115ff5f830161027b565b5f9061162961160c61027e565b92611620611618610be5565b5f86016102d6565b602084016102de565b610629565b61166b61163c5f830161027b565b5f9061166661164961027e565b9261165d611655610c30565b5f86016102d6565b602084016102de565b610629565b6116a86116795f830161027b565b5f906116a361168661027e565b9261169a611692610ca1565b5f86016102d6565b602084016102de565b610629565b6116e56116b65f830161027b565b5f906116e06116c361027e565b926116d76116cf610cec565b5f86016102d6565b602084016102de565b610629565b6117226116f35f830161027b565b5f9061171d61170061027e565b9261171461170c610d37565b5f86016102d6565b602084016102de565b610629565b61175f6117305f830161027b565b5f9061175a61173d61027e565b92611751611749610d82565b5f86016102d6565b602084016102de565b610629565b61179c61176d5f830161027b565b5f9061179761177a61027e565b9261178e611786610dcd565b5f86016102d6565b602084016102de565b610629565b6117a860018201610ee9565b6117b460028201610fae565b6117c060038201610fae565b6117cc60048201611073565b01611138565b565b90565b60018060a01b031690565b6117f66117f16117fb926117d4565b6101ef565b6117d7565b90565b611807906117e2565b90565b611813906117d7565b90565b61181f9061180a565b9052565b9190611836905f60208501940190611816565b565b9161184291611894565b8061185d6118576118525f6117fe565b61180a565b9161180a565b1461186d5761186b9061195f565b565b6118906118795f6117fe565b5f918291631e4fbdf760e01b835260048301611823565b0390fd5b9061189e916118a0565b565b906118ae6118b5925f61057d565b600161057d565b565b5f1c90565b60018060a01b031690565b6118d36118d8916118b7565b6118bc565b90565b6118e590546118c7565b90565b906118f960018060a01b0391610596565b9181191691161790565b61191761191261191c926117d7565b6101ef565b6117d7565b90565b61192890611903565b90565b6119349061191f565b90565b90565b9061194f61194a6119569261192b565b611937565b82546118e8565b9055565b5f0190565b61196960076118db565b61197482600761193a565b906119a86119a27f8be0079c531659141344cd1fd0a4f28419497f9722a3daafe3b4186f6b6457e09361192b565b9161192b565b916119b161002c565b806119bb8161195a565b0390a356fe60806040526004361015610013575b61156e565b61001d5f356101fc565b806301ffc9a7146101f757806306fdde03146101f2578063081812fc146101ed578063095ea7b3146101e857806311ea20e6146101e357806323b872dd146101de578063324ddb15146101d957806342842e0e146101d4578063455c928c146101cf5780634df90874146101ca5780635853eede146101c55780635f5d5f00146101c05780636352211e146101bb5780637090a4c1146101b657806370a08231146101b157806370ae0d24146101ac578063715018a6146101a757806375794a3c146101a25780638da5cb5b1461019d57806395d89b4114610198578063975d54c014610193578063a22cb4651461018e578063a87430ba14610189578063b307fc6d14610184578063b80a70d91461017f578063b88d4fde1461017a578063c87b56dd14610175578063e985e9c514610170578063f21e95f01461016b5763f2fde38b0361000e5761153b565b611506565b6114d0565b61146e565b611437565b611323565b6110f3565b611022565b610f06565b610ea5565b610e43565b610e0e565b610dd9565b610d6a565b610d35565b610c7a565b610c23565b610bee565b610bb9565b610ae7565b610aad565b61076f565b61073b565b610706565b6106b4565b610645565b610473565b6103e9565b610337565b610288565b60e01c90565b60405190565b5f80fd5b5f80fd5b5f80fd5b63ffffffff60e01b1690565b61022981610214565b0361023057565b5f80fd5b9050359061024182610220565b565b9060208282031261025c57610259915f01610234565b90565b61020c565b151590565b61026f90610261565b9052565b9190610286905f60208501940190610266565b565b346102b8576102b46102a361029e366004610243565b6115ab565b6102ab610202565b91829182610273565b0390f35b610208565b5f9103126102c757565b61020c565b5190565b60209181520190565b90825f9392825e0152565b601f801991011690565b61030d61031660209361031b93610304816102cc565b938480936102d0565b958691016102d9565b6102e4565b0190565b6103349160208201915f8184039101526102ee565b90565b34610367576103473660046102bd565b6103636103526115fc565b61035a610202565b9182918261031f565b0390f35b610208565b90565b6103788161036c565b0361037f57565b5f80fd5b905035906103908261036f565b565b906020828203126103ab576103a8915f01610383565b90565b61020c565b60018060a01b031690565b6103c4906103b0565b90565b6103d0906103bb565b9052565b91906103e7905f602085019401906103c7565b565b34610419576104156104046103ff366004610392565b611615565b61040c610202565b918291826103d4565b0390f35b610208565b610427816103bb565b0361042e57565b5f80fd5b9050359061043f8261041e565b565b9190604083820312610469578061045d610466925f8601610432565b93602001610383565b90565b61020c565b5f0190565b346104a25761048c610486366004610441565b90611634565b610494610202565b8061049e8161046e565b0390f35b610208565b5190565b60209181520190565b60200190565b60209181520190565b6104e26104eb6020936104f0936104d9816102cc565b938480936104ba565b958691016102d9565b6102e4565b0190565b6104fd90610261565b9052565b9061052b90602080610520604084015f8701518582035f8701526104c3565b9401519101906104f4565b90565b9061053891610501565b90565b60200190565b9061055561054e836104a7565b80926104ab565b9081610566602083028401946104b4565b925f915b83831061057957505050505090565b9091929394602061059b6105958385600195038752895161052e565b9761053b565b930193019193929061056a565b61062a9160a06106196106076105f56105e36105d160c087015f8901518882035f8a0152610541565b602088015187820360208901526104c3565b604087015186820360408801526104c3565b606086015185820360608701526104c3565b608085015184820360808601526104c3565b9201519060a08184039101526104c3565b90565b6106429160208201915f8184039101526105a8565b90565b346106755761067161066061065b366004610392565b6118c0565b610668610202565b9182918261062d565b0390f35b610208565b90916060828403126106af576106ac610695845f8501610432565b936106a38160208601610432565b93604001610383565b90565b61020c565b346106e3576106cd6106c736600461067a565b91611982565b6106d5610202565b806106df8161046e565b0390f35b610208565b90602082820312610701576106fe915f01610432565b90565b61020c565b346107365761073261072161071c3660046106e8565b611a1d565b610729610202565b91829182610273565b0390f35b610208565b3461076a5761075461074e36600461067a565b91611a88565b61075c610202565b806107668161046e565b0390f35b610208565b3461079d5761077f3660046102bd565b610787611c13565b61078f610202565b806107998161046e565b0390f35b610208565b5f80fd5b634e487b7160e01b5f52604160045260245ffd5b906107c4906102e4565b810190811067ffffffffffffffff8211176107de57604052565b6107a6565b906107f66107ef610202565b92836107ba565b565b67ffffffffffffffff81116108105760208091020190565b6107a6565b5f80fd5b5f80fd5b5f80fd5b5f80fd5b67ffffffffffffffff81116108435761083f6020916102e4565b0190565b6107a6565b90825f939282370152565b9092919261086861086382610825565b6107e3565b938185526020850190828401116108845761088292610848565b565b610821565b9080601f830112156108a7578160206108a493359101610853565b90565b6107a2565b6108b581610261565b036108bc57565b5f80fd5b905035906108cd826108ac565b565b919091604081840312610922576108e660406107e3565b925f8201359167ffffffffffffffff831161091d5761090a82610916948301610889565b5f8601526020016108c0565b6020830152565b61081d565b610819565b92919061093b610936826107f8565b6107e3565b93818552602080860192028101918383116109925781905b838210610961575050505050565b813567ffffffffffffffff811161098d5760209161098287849387016108cf565b815201910190610953565b6107a2565b610815565b9080601f830112156109b5578160206109b293359101610927565b90565b6107a2565b9160c083830312610aa8575f83013567ffffffffffffffff8111610aa357826109e4918501610997565b92602081013567ffffffffffffffff8111610a9e5783610a05918301610889565b92604082013567ffffffffffffffff8111610a995781610a26918401610889565b92606083013567ffffffffffffffff8111610a945782610a47918501610889565b92608081013567ffffffffffffffff8111610a8f5783610a68918301610889565b9260a082013567ffffffffffffffff8111610a8a57610a879201610889565b90565b610210565b610210565b610210565b610210565b610210565b610210565b61020c565b34610ae257610acc610ac03660046109ba565b949390939291926122a6565b610ad4610202565b80610ade8161046e565b0390f35b610208565b34610b1557610aff610afa366004610392565b6124ac565b610b07610202565b80610b118161046e565b0390f35b610208565b5190565b60209181520190565b60200190565b610b36906103bb565b9052565b90610b4781602093610b2d565b0190565b60200190565b90610b6e610b68610b6184610b1a565b8093610b1e565b92610b27565b905f5b818110610b7e5750505090565b909192610b97610b916001928651610b3a565b94610b4b565b9101919091610b71565b610bb69160208201915f818403910152610b51565b90565b34610be957610bc93660046102bd565b610be5610bd461256a565b610bdc610202565b91829182610ba1565b0390f35b610208565b34610c1e57610c1a610c09610c04366004610392565b612580565b610c11610202565b918291826103d4565b0390f35b610208565b34610c5357610c4f610c3e610c39366004610392565b6126e6565b610c46610202565b9182918261031f565b0390f35b610208565b610c619061036c565b9052565b9190610c78905f60208501940190610c58565b565b34610caa57610ca6610c95610c903660046106e8565b612710565b610c9d610202565b91829182610c65565b0390f35b610208565b50601990565b905090565b90565b90610cca816020936104f4565b0190565b60200190565b610cf0610cea610ce383610caf565b8094610cb5565b91610cba565b5f915b838310610d005750505050565b610d16610d106001928451610cbd565b92610cce565b92019190610cf3565b9190610d33905f6103208501940190610cd4565b565b34610d6557610d61610d50610d4b366004610392565b61294c565b610d58610202565b91829182610d1f565b0390f35b610208565b34610d9857610d7a3660046102bd565b610d82612985565b610d8a610202565b80610d948161046e565b0390f35b610208565b1c90565b90565b610db4906008610db99302610d9d565b610da1565b90565b90610dc79154610da4565b90565b610dd6600a5f90610dbc565b90565b34610e0957610de93660046102bd565b610e05610df4610dca565b610dfc610202565b91829182610c65565b0390f35b610208565b34610e3e57610e1e3660046102bd565b610e3a610e2961298f565b610e31610202565b918291826103d4565b0390f35b610208565b34610e7357610e533660046102bd565b610e6f610e5e6129a5565b610e66610202565b9182918261031f565b0390f35b610208565b9190604083820312610ea05780610e94610e9d925f8601610383565b93602001610383565b90565b61020c565b34610ed457610ebe610eb8366004610e78565b90612be0565b610ec6610202565b80610ed08161046e565b0390f35b610208565b9190604083820312610f015780610ef5610efe925f8601610432565b936020016108c0565b90565b61020c565b34610f3557610f1f610f19366004610ed9565b90612bec565b610f27610202565b80610f318161046e565b0390f35b610208565b90565b610f51610f4c610f56926103b0565b610f3a565b6103b0565b90565b610f6290610f3d565b90565b610f6e90610f59565b90565b90610f7b90610f65565b5f5260205260405f2090565b5f1c90565b60018060a01b031690565b610fa3610fa891610f87565b610f8c565b90565b610fb59054610f97565b90565b610fc4610fc991610f87565b610da1565b90565b610fd69054610fb8565b90565b610fe4906008610f71565b90610ffc6002610ff55f8501610fab565b9301610fcc565b90565b91602061102092949361101960408201965f8301906103c7565b0190610c58565b565b346110535761103a6110353660046106e8565b610fd9565b9061104f611046610202565b92839283610fff565b0390f35b610208565b634e487b7160e01b5f52603260045260245ffd5b5490565b5f5260205f2090565b6110828161106c565b82101561109c57611094600191611070565b910201905f90565b611058565b6110b19060086110b69302610d9d565b610f8c565b90565b906110c491546110a1565b90565b600b6110d28161106c565b8210156110ef576110ec916110e691611079565b906110b9565b90565b5f80fd5b346111235761111f61110e611109366004610392565b6110c7565b611116610202565b918291826103d4565b0390f35b610208565b5490565b5f5260205f2090565b61113e81611128565b8210156111585761115060069161112c565b910201905f90565b611058565b634e487b7160e01b5f52602260045260245ffd5b9060016002830492168015611191575b602083101461118c57565b61115d565b91607f1691611181565b5f5260205f2090565b905f92918054906111be6111b783611171565b80946104ba565b916001811690815f1461121557506001146111d9575b505050565b6111e6919293945061119b565b915f925b8184106111fd57505001905f80806111d4565b600181602092959395548486015201910192906111ea565b92949550505060ff19168252151560200201905f80806111d4565b9061123a916111a4565b90565b9061125d6112569261124d610202565b93848092611230565b03836107ba565b565b60099061126b82611128565b8110156112be5761127b91611135565b506112886001820161123d565b916112956002830161123d565b916112a26003820161123d565b916112bb60056112b46004850161123d565b930161123d565b90565b5f80fd5b939061132095936112f6611312946112e86113049460a08a01908a82035f8c01526102ee565b9088820360208a01526102ee565b9086820360408801526102ee565b9084820360608601526102ee565b9160808184039101526102ee565b90565b346113575761135361133e611339366004610392565b61125f565b9161134a959395610202565b958695866112c2565b0390f35b610208565b67ffffffffffffffff811161137a576113766020916102e4565b0190565b6107a6565b9092919261139461138f8261135c565b6107e3565b938185526020850190828401116113b0576113ae92610848565b565b610821565b9080601f830112156113d3578160206113d09335910161137f565b90565b6107a2565b90608082820312611432576113ef815f8401610432565b926113fd8260208501610432565b9261140b8360408301610383565b92606082013567ffffffffffffffff811161142d5761142a92016113b5565b90565b610210565b61020c565b346114695761145361144a3660046113d8565b92919091612c02565b61145b610202565b806114658161046e565b0390f35b610208565b3461149e5761149a611489611484366004610392565b612cb7565b611491610202565b9182918261031f565b0390f35b610208565b91906040838203126114cb57806114bf6114c8925f8601610432565b93602001610432565b90565b61020c565b34611501576114fd6114ec6114e63660046114a3565b90612d83565b6114f4610202565b91829182610273565b0390f35b610208565b346115365761153261152161151c366004610392565b613aa2565b611529610202565b91829182610d1f565b0390f35b610208565b346115695761155361154e3660046106e8565b613b1b565b61155b610202565b806115658161046e565b0390f35b610208565b5f80fd5b5f90565b90565b60e01b90565b61159361158e61159892611576565b611579565b610214565b90565b6115a8634906490661157f565b90565b6115b3611572565b50806115ce6115c86115c361159b565b610214565b91610214565b149081156115db575b5090565b6115e59150613b26565b5f6115d7565b606090565b6115f99061123d565b90565b6116046115eb565b5061160e5f6115f0565b90565b5f90565b61163190611621611611565b5061162b81613b8e565b50613bfa565b90565b906116489190611642613c19565b91613c26565b565b61165460c06107e3565b90565b606090565b606090565b61166961164a565b90602080808080808761167a611657565b81520161168561165c565b81520161169061165c565b81520161169b61165c565b8152016116a661165c565b8152016116b161165c565b81525050565b6116bf611661565b90565b5f7f496e76616c696420626f61726400000000000000000000000000000000000000910152565b6116f6600d6020926102d0565b6116ff816116c2565b0190565b6117189060208101905f8183039101526116e9565b90565b5490565b9061173161172c836107f8565b6107e3565b918252565b5f5260205f2090565b52565b60ff1690565b61175461175991610f87565b611742565b90565b6117669054611748565b90565b9061177390610261565b9052565b61178160406107e3565b90565b906117bb6117b26001611795611777565b946117ac6117a45f830161123d565b5f880161173f565b0161175c565b60208401611769565b565b6117c690611784565b90565b906117d38261171b565b6117dc8161171f565b926117ea6020850191611736565b5f915b8383106117fa5750505050565b6002602060019261180a856117bd565b8152019201920191906117ed565b52565b906118b26118a9600561182c61164a565b9461184361183b5f83016117c9565b5f8801611818565b61185b6118526001830161123d565b6020880161173f565b61187361186a6002830161123d565b6040880161173f565b61188b6118826003830161123d565b6060880161173f565b6118a361189a6004830161123d565b6080880161173f565b0161123d565b60a0840161173f565b565b6118bd9061181b565b90565b6118c86116b7565b50806118e56118df6118da6009611128565b61036c565b9161036c565b1015611902576118f96118ff916009611135565b506118b4565b90565b61190a610202565b6335e60ced60e01b81528061192160048201611703565b0390fd5b90565b61193c61193761194192611925565b610f3a565b6103b0565b90565b61194d90611928565b90565b604090611979611980949695939661196f60608401985f8501906103c7565b6020830190610c58565b01906103c7565b565b91908061199f6119996119945f611944565b6103bb565b916103bb565b146119f6576119b790826119b1613c19565b91613c52565b91826119cb6119c5836103bb565b916103bb565b036119d557505050565b6119f29091925f9384936364283d7b60e01b855260048501611950565b0390fd5b611a19611a025f611944565b5f918291633250574960e11b8352600483016103d4565b0390fd5b5f611a35611a3b92611a2d611572565b506008610f71565b01610fab565b611a55611a4f611a4a5f611944565b6103bb565b916103bb565b141590565b90611a6c611a6783610825565b6107e3565b918252565b611a7a5f611a5a565b90565b611a85611a71565b90565b91611a9c9291611a96611a7d565b92612c02565b565b5f7f5573657220616c72656164792065786973747300000000000000000000000000910152565b611ad260136020926102d0565b611adb81611a9e565b0190565b611af49060208101905f818303910152611ac5565b90565b5f1b90565b90611b0d60018060a01b0391611af7565b9181191691161790565b90565b90611b2f611b2a611b3692610f65565b611b17565b8254611afc565b9055565b90565b5f5260205f2090565b5490565b611b5381611b46565b821015611b6d57611b65600191611b3d565b910201905f90565b611058565b1b90565b91906008611b96910291611b9060018060a01b0384611b72565b92611b72565b9181191691161790565b9190611bb6611bb1611bbe93610f65565b611b17565b908354611b76565b9055565b9081549168010000000000000000831015611bf25782611bea916001611bf095018155611b4a565b90611ba0565b565b6107a6565b611c0b611c06611c1092611925565b610f3a565b61036c565b90565b611c295f611c2360083390610f71565b01610fab565b611c43611c3d611c385f611944565b6103bb565b916103bb565b03611c8657611c5f335f611c5960083390610f71565b01611b1a565b611c73611c6c600b611b3a565b3390611bc2565b611c84611c7f5f611bf7565b6124ac565b565b611c8e610202565b6335e60ced60e01b815280611ca560048201611adf565b0390fd5b90611cbf9594939291611cba613dd3565b612159565b565b90565b611cd8611cd3611cdd92611cc1565b610f3a565b61036c565b90565b5f7f4d7573742068617665203235206974656d730000000000000000000000000000910152565b611d1460126020926102d0565b611d1d81611ce0565b0190565b611d369060208101905f818303910152611d07565b90565b90565b5490565b5f5260205f2090565b611d5281611d3c565b821015611d6c57611d64600691611d40565b910201905f90565b611058565b611d7a81611d3c565b68010000000000000000811015611d9e57611d9a91600182018155611d49565b9091565b6107a6565b90565b611dba611db5611dbf92611da3565b610f3a565b61036c565b90565b634e487b7160e01b5f52601160045260245ffd5b611de5611deb9193929361036c565b9261036c565b8203918211611df657565b611dc2565b90565b6001611e0a910161036c565b90565b90565b90611e1a826104a7565b811015611e2b576020809102010190565b611058565b611e3a60406107e3565b90565b5f5260205f2090565b5490565b611e5381611e46565b821015611e6d57611e65600291611e3d565b910201905f90565b611058565b634e487b7160e01b5f525f60045260245ffd5b5190565b601f602091010490565b91906008611eae910291611ea85f1984611b72565b92611b72565b9181191691161790565b611ecc611ec7611ed19261036c565b610f3a565b61036c565b90565b90565b9190611eed611ee8611ef593611eb8565b611ed4565b908354611e93565b9055565b5f90565b611f0f91611f09611ef9565b91611ed7565b565b5b818110611f1d575050565b80611f2a5f600193611efd565b01611f12565b9190601f8111611f40575b505050565b611f4c611f719361119b565b906020611f5884611e89565b83019310611f79575b611f6a90611e89565b0190611f11565b5f8080611f3b565b9150611f6a81929050611f61565b90611f97905f1990600802610d9d565b191690565b81611fa691611f87565b906002021790565b90611fb8816102cc565b9067ffffffffffffffff821161207857611fdc82611fd68554611171565b85611f30565b602090601f831160011461201057918091611fff935f92612004575b5050611f9c565b90555b565b90915001515f80611ff8565b601f1983169161201f8561119b565b925f5b81811061206057509160029391856001969410612046575b50505002019055612002565b612056910151601f841690611f87565b90555f808061203a565b91936020600181928787015181550195019201612022565b6107a6565b9061208791611fae565b565b6120939051610261565b90565b906120a260ff91611af7565b9181191691161790565b6120b590610261565b90565b90565b906120d06120cb6120d7926120ac565b6120b8565b8254612096565b9055565b906121066020600161210c946120fe5f82016120f85f8801611e85565b9061207d565b019201612089565b906120bb565b565b919061211f5761211d916120db565b565b611e72565b9081549168010000000000000000831015612154578261214c91600161215295018155611e4a565b9061210e565b565b6107a6565b95929491939094612169876104a7565b61217c6121766019611cc4565b9161036c565b036122835761219361218e6009611d39565b611d71565b50506121c66121c060096121ba6121aa6009611128565b6121b46001611da6565b90611dd6565b90611135565b50611dfb565b946121d05f611bf7565b5b806121e56121df6019611cc4565b9161036c565b101561223d57612238906122336121fd5f8a01611e0d565b5f6122098d8590611e10565b5101519061222e5f61222561221c611e30565b945f860161173f565b60208401611769565b612124565b611dfe565b6121d1565b50600594975061227a92916122686122719261225f6122819a60018b0161207d565b6002890161207d565b6003870161207d565b6004850161207d565b910161207d565b565b61228b610202565b6335e60ced60e01b8152806122a260048201611d21565b0390fd5b906122b49594939291611ca9565b565b5f7f4e6f742061206d656d6265720000000000000000000000000000000000000000910152565b6122ea600c6020926102d0565b6122f3816122b6565b0190565b61230c9060208101905f8183039101526122dd565b90565b6123255f61231f60083390610f71565b01610fab565b61233f6123396123345f611944565b6103bb565b916103bb565b1461234f5761234d906123dd565b565b612357610202565b6335e60ced60e01b81528061236e600482016122f7565b0390fd5b90565b61237e9061036c565b5f19811461238c5760010190565b611dc2565b9061239d5f1991611af7565b9181191691161790565b906123bc6123b76123c392611eb8565b611ed4565b8254612391565b9055565b906123d190611eb8565b5f5260205260405f2090565b806123f96123f36123ee6009611128565b61036c565b9161036c565b10156124895761248790600361248161241c61241760083390610f71565b612372565b926124566002850161244061243082610fcc565b9161243a83612375565b906123a7565b915f6124506001880185906123c7565b016123a7565b61246f5f600161246981880185906123c7565b016120bb565b600161247a5f611bf7565b94016123c7565b016123a7565b565b612491610202565b6335e60ced60e01b8152806124a860048201611703565b0390fd5b6124b59061230f565b565b606090565b60209181520190565b6124cf9054610f97565b90565b60010190565b906124f56124ef6124e88461106c565b80936124bc565b92611070565b905f5b8181106125055750505090565b90919261252561251f60019261251a876124c5565b610b3a565b946124d2565b91019190916124f8565b90612539916124d8565b90565b9061255c6125559261254c610202565b9384809261252f565b03836107ba565b565b6125679061253c565b90565b6125726124b7565b5061257d600b61255e565b90565b6125929061258c611611565b50613b8e565b90565b906125ac5f6125a660083390610f71565b01610fab565b6125c66125c06125bb5f611944565b6103bb565b916103bb565b146125d7576125d49161267f565b90565b6125df610202565b6335e60ced60e01b8152806125f6600482016122f7565b0390fd5b90565b5f7f4e4654206e6f74206d696e746564207965740000000000000000000000000000910152565b61263160126020926102d0565b61263a816125fd565b0190565b6126539060208101905f818303910152612624565b90565b1561265d57565b612665610202565b62461bcd60e51b81528061267b6004820161263e565b0390fd5b60036126b16126ac6126e3946126de945060016126a66126a160083390610f71565b612372565b016123c7565b6125fa565b6126d86126bf838301610fcc565b6126d16126cb5f611bf7565b9161036c565b1415612656565b01610fcc565b612cb7565b90565b6126f7906126f26115eb565b612595565b90565b9061270490610f65565b5f5260205260405f2090565b612718611ef9565b508061273461272e6127295f611944565b6103bb565b916103bb565b1461274f5761274761274c9160036126fa565b610fcc565b90565b61277261275b5f611944565b5f9182916322718ad960e21b8352600483016103d4565b0390fd5b67ffffffffffffffff811161278b5760200290565b6107a6565b61279c6127a191612776565b6107e3565b90565b369037565b906127c76127b683612790565b926127c18491612776565b906127a4565b565b6127d360196127a9565b90565b906127ed5f6127e760083390610f71565b01610fab565b6128076128016127fc5f611944565b6103bb565b916103bb565b1461281857612815916128b6565b90565b612820610202565b6335e60ced60e01b815280612837600482016122f7565b0390fd5b50601990565b90565b9190916128508161283b565b83101561286e576020612864600192612841565b8185040193060290565b611058565b6128839060086128889302610d9d565b611742565b90565b906128969154612873565b90565b906128a382610caf565b8110156128b1576020020190565b611058565b6128e0916128db915060016128d56128d060083390610f71565b612372565b016123c7565b6125fa565b6128e86127c9565b906128f25f611bf7565b5b806129076129016019611cc4565b9161036c565b1015612947576129429061293d61292b612925600286018490612844565b9061288b565b6129388691849092612899565b611769565b611dfe565b6128f3565b505090565b61295d906129586127c9565b6127d6565b90565b612968613dd3565b612970612972565b565b61298361297e5f611944565b613e21565b565b61298d612960565b565b612997611611565b506129a26007610fab565b90565b6129ad6115eb565b506129b860016115f0565b90565b906129d25f6129cc60083390610f71565b01610fab565b6129ec6129e66129e15f611944565b6103bb565b916103bb565b146129fc576129fa91612b18565b565b612a04610202565b6335e60ced60e01b815280612a1b600482016122f7565b0390fd5b5f7f496e76616c6964206974656d20696e6465780000000000000000000000000000910152565b612a5360126020926102d0565b612a5c81612a1f565b0190565b612a759060208101905f818303910152612a46565b90565b5f7f4974656d20616c726561647920646f6e65000000000000000000000000000000910152565b612aac60116020926102d0565b612ab581612a78565b0190565b612ace9060208101905f818303910152612a9f565b90565b91906008612aec910291612ae660ff84611b72565b92611b72565b9181191691161790565b9190612b0c612b07612b14936120ac565b6120b8565b908354612ad1565b9055565b612b41612b3c6001612b34612b2f60083390610f71565b612372565b0183906123c7565b6125fa565b9180612b56612b506019611cc4565b9161036c565b1015612bbd57612b73612b6d600285018390612844565b9061288b565b612b9a57612b9892612b8d612b9392600260019301612844565b90612af6565b613edf565b565b612ba2610202565b6335e60ced60e01b815280612bb960048201612ab9565b0390fd5b612bc5610202565b6335e60ced60e01b815280612bdc60048201612a60565b0390fd5b90612bea916129bb565b565b612c0091612bf8613c19565b9190916140ed565b565b91612c269391612c1484828491611982565b612c1c613c19565b93909192936142b1565b565b90612c3290611eb8565b5f5260205260405f2090565b90565b5190565b905090565b612c6f612c6692602092612c5d816102cc565b94858093612c45565b938491016102d9565b0190565b612c8190612c879392612c4a565b90612c4a565b90565b612ca99291612cb591612c9b610202565b948592602084019283612c73565b908103825203836107ba565b565b612cbf6115eb565b50612cc981613b8e565b50612cde612cd960068390612c28565b6115f0565b612ce6614410565b612cf7612cf282612c3e565b612c41565b612d09612d035f611bf7565b9161036c565b14612d5157612d1f612d1a83612c3e565b612c41565b612d31612d2b5f611bf7565b9161036c565b11612d44575050612d4190614424565b90565b612d4e9250612c8a565b90565b50905090565b90612d6190610f65565b5f5260205260405f2090565b90612d7790610f65565b5f5260205260405f2090565b612da891612d9e612da392612d96611572565b506005612d57565b612d6d565b61175c565b90565b90612dc25f612dbc60083390610f71565b01610fab565b612ddc612dd6612dd15f611944565b6103bb565b916103bb565b14612ded57612dea91613a71565b90565b612df5610202565b6335e60ced60e01b815280612e0c600482016122f7565b0390fd5b90612e1a9061036c565b9052565b905090565b60081c90565b612e35612e3a91612e23565b611742565b90565b60101c90565b612e4f612e5491612e3d565b611742565b90565b60181c90565b612e69612e6e91612e57565b611742565b90565b60201c90565b612e83612e8891612e71565b611742565b90565b60281c90565b612e9d612ea291612e8b565b611742565b90565b60301c90565b612eb7612ebc91612ea5565b611742565b90565b60381c90565b612ed1612ed691612ebf565b611742565b90565b60401c90565b612eeb612ef091612ed9565b611742565b90565b60481c90565b612f05612f0a91612ef3565b611742565b90565b60501c90565b612f1f612f2491612f0d565b611742565b90565b60581c90565b612f39612f3e91612f27565b611742565b90565b60601c90565b612f53612f5891612f41565b611742565b90565b60681c90565b612f6d612f7291612f5b565b611742565b90565b60701c90565b612f87612f8c91612f75565b611742565b90565b60781c90565b612fa1612fa691612f8f565b611742565b90565b60801c90565b612fbb612fc091612fa9565b611742565b90565b60881c90565b612fd5612fda91612fc3565b611742565b90565b60901c90565b612fef612ff491612fdd565b611742565b90565b60981c90565b61300961300e91612ff7565b611742565b90565b60a01c90565b61302361302891613011565b611742565b90565b60a81c90565b61303d6130429161302b565b611742565b90565b60b01c90565b61305761305c91613045565b611742565b90565b60b81c90565b6130716130769161305f565b611742565b90565b60c01c90565b61308b61309091613079565b611742565b90565b60c81c90565b6130a56130aa91613093565b611742565b90565b60d01c90565b6130bf6130c4916130ad565b611742565b90565b60d81c90565b6130d96130de916130c7565b611742565b90565b6130ed6130f2916101fc565b611742565b90565b60e81c90565b61310761310c916130f5565b611742565b90565b60f01c90565b6131216131269161310f565b611742565b90565b60f81c90565b61313b61314091613129565b611742565b90565b905f9061316261315c6131558561283b565b8093612e1e565b93612841565b90826136b5575b506001613176575b505050565b6001905490613692575b600161366f575b600161364c575b6001613629575b6001613606575b60016135e3575b60016135c0575b600161359d575b600161357a575b6001613557575b6001613534575b6001613511575b60016134ee575b60016134cb575b60016134a8575b6001613485575b6001613462575b600161343f575b600161341c575b60016133f9575b60016133d6575b60016133b3575b6001613390575b600161336d575b600161334a575b5f613327575b5f613304575b5f6132e1575b5f6132be575b5f61329b575b5f613278575b5f613257575b613171565b8261326e60019461326960209461312f565b6104f4565b5050015f80613252565b60016020846132915f959661328c86613115565b6104f4565b019301915061324c565b60016020846132b45f95966132af866130fb565b6104f4565b0193019150613246565b60016020846132d75f95966132d2866130e1565b6104f4565b0193019150613240565b60016020846132fa5f95966132f5866130cd565b6104f4565b019301915061323a565b600160208461331d5f9596613318866130b3565b6104f4565b0193019150613234565b60016020846133405f959661333b86613099565b6104f4565b019301915061322e565b60016020846133635f959661335e8661307f565b6104f4565b0193019150613228565b600160208461338683959661338186613065565b6104f4565b0193019150613221565b60016020846133a98395966133a48661304b565b6104f4565b019301915061321a565b60016020846133cc8395966133c786613031565b6104f4565b0193019150613213565b60016020846133ef8395966133ea86613017565b6104f4565b019301915061320c565b600160208461341283959661340d86612ffd565b6104f4565b0193019150613205565b600160208461343583959661343086612fe3565b6104f4565b01930191506131fe565b600160208461345883959661345386612fc9565b6104f4565b01930191506131f7565b600160208461347b83959661347686612faf565b6104f4565b01930191506131f0565b600160208461349e83959661349986612f95565b6104f4565b01930191506131e9565b60016020846134c18395966134bc86612f7b565b6104f4565b01930191506131e2565b60016020846134e48395966134df86612f61565b6104f4565b01930191506131db565b600160208461350783959661350286612f47565b6104f4565b01930191506131d4565b600160208461352a83959661352586612f2d565b6104f4565b01930191506131cd565b600160208461354d83959661354886612f13565b6104f4565b01930191506131c6565b600160208461357083959661356b86612ef9565b6104f4565b01930191506131bf565b600160208461359383959661358e86612edf565b6104f4565b01930191506131b8565b60016020846135b68395966135b186612ec5565b6104f4565b01930191506131b1565b60016020846135d98395966135d486612eab565b6104f4565b01930191506131aa565b60016020846135fc8395966135f786612e91565b6104f4565b01930191506131a3565b600160208461361f83959661361a86612e77565b6104f4565b019301915061319c565b600160208461364283959661363d86612e5d565b6104f4565b0193019150613195565b600160208461366583959661366086612e43565b6104f4565b019301915061318e565b600160208461368883959661368386612e29565b6104f4565b0193019150613187565b60016020846136ab8395966136a686611748565b6104f4565b0193019150613180565b5b8060016020038401101561316957919092835490806136d483611748565b906136de916104f4565b602001806136eb83612e29565b906136f5916104f4565b6020018061370283612e43565b9061370c916104f4565b6020018061371983612e5d565b90613723916104f4565b6020018061373083612e77565b9061373a916104f4565b6020018061374783612e91565b90613751916104f4565b6020018061375e83612eab565b90613768916104f4565b6020018061377583612ec5565b9061377f916104f4565b6020018061378c83612edf565b90613796916104f4565b602001806137a383612ef9565b906137ad916104f4565b602001806137ba83612f13565b906137c4916104f4565b602001806137d183612f2d565b906137db916104f4565b602001806137e883612f47565b906137f2916104f4565b602001806137ff83612f61565b90613809916104f4565b6020018061381683612f7b565b90613820916104f4565b6020018061382d83612f95565b90613837916104f4565b6020018061384483612faf565b9061384e916104f4565b6020018061385b83612fc9565b90613865916104f4565b6020018061387283612fe3565b9061387c916104f4565b6020018061388983612ffd565b90613893916104f4565b602001806138a083613017565b906138aa916104f4565b602001806138b783613031565b906138c1916104f4565b602001806138ce8361304b565b906138d8916104f4565b602001806138e583613065565b906138ef916104f4565b602001806138fc8361307f565b90613906916104f4565b6020018061391383613099565b9061391d916104f4565b6020018061392a836130b3565b90613934916104f4565b60200180613941836130cd565b9061394b916104f4565b60200180613958836130e1565b90613962916104f4565b6020018061396f836130fb565b90613979916104f4565b6020018061398683613115565b90613990916104f4565b60200161399d819261312f565b906139a7916104f4565b6020019260010190602001916136b6565b906139c68161032093613143565b0190565b906139ea6139e3926139da610202565b938480926139b8565b03836107ba565b565b52565b6139f960806107e3565b90565b90613a63613a5a6003613a0d6139ef565b94613a24613a1c5f8301610fcc565b5f8801612e10565b613a3c613a336001830161175c565b60208801611769565b613a54613a4b600283016139ca565b604088016139ec565b01610fcc565b60608401612e10565b565b613a6e906139fc565b90565b613a98604092613a9d92506001613a92613a8d60083390610f71565b612372565b016123c7565b613a65565b015190565b613ab390613aae6127c9565b612dab565b90565b613ac790613ac2613dd3565b613ac9565b565b80613ae4613ade613ad95f611944565b6103bb565b916103bb565b14613af457613af290613e21565b565b613b17613b005f611944565b5f918291631e4fbdf760e01b8352600483016103d4565b0390fd5b613b2490613ab6565b565b613b2e611572565b5080613b49613b436380ac58cd60e01b610214565b91610214565b148015613b6d575b908115613b5d575b5090565b613b679150614490565b5f613b59565b5080613b88613b82635b5e139f60e01b610214565b91610214565b14613b51565b613b96611611565b50613ba0816144b6565b9081613bbc613bb6613bb15f611944565b6103bb565b916103bb565b14613bc5575090565b613be0905f918291637e27328960e01b835260048301610c65565b0390fd5b90613bee90611eb8565b5f5260205260405f2090565b613c11613c1691613c09611611565b506004613be4565b610fab565b90565b613c21611611565b503390565b91613c3492916001926144d5565b565b90613c41910361036c565b90565b90613c4f910161036c565b90565b90613c5b611611565b50613c65816144b6565b9280613c81613c7b613c765f611944565b6103bb565b916103bb565b03613dc0575b5082613ca3613c9d613c985f611944565b6103bb565b916103bb565b03613d6c575b81613cc4613cbe613cb95f611944565b6103bb565b916103bb565b03613d36575b613cdf82613cda60028490613be4565b611b1a565b8291613d1d613d17613d117fddf252ad1be2c89b69c2b068fc378daa952ba7f163c4a11628f55a4df523b3ef95610f65565b92610f65565b92611eb8565b92613d26610202565b80613d308161046e565b0390a490565b613d67613d436001611da6565b613d61613d52600386906126fa565b91613d5c83610fcc565b613c44565b906123a7565b613cca565b613d8a613d785f611944565b82613d825f611944565b905f926144d5565b613dbb613d976001611da6565b613db5613da6600387906126fa565b91613db083610fcc565b613c36565b906123a7565b613ca9565b613dcd908490839161461f565b5f613c87565b613ddb61298f565b613df4613dee613de9613c19565b6103bb565b916103bb565b03613dfb57565b613e1d613e06613c19565b5f91829163118cdaa760e01b8352600483016103d4565b0390fd5b613e2b6007610fab565b613e36826007611b1a565b90613e6a613e647f8be0079c531659141344cd1fd0a4f28419497f9722a3daafe3b4186f6b6457e093610f65565b91610f65565b91613e73610202565b80613e7d8161046e565b0390a3565b90565b613e99613e94613e9e92613e82565b610f3a565b61036c565b90565b90565b613eb8613eb3613ebd92613ea1565b610f3a565b61036c565b90565b90565b613ed7613ed2613edc92613ec0565b610f3a565b61036c565b90565b613f02613f07916001613efc613ef760083390610f71565b612372565b016123c7565b6125fa565b613f26613f206009613f1a5f8501610fcc565b90611135565b50611dfb565b90613f305f611bf7565b92613f3a5f611bf7565b5b80613f4f613f496019611cc4565b9161036c565b1015613f9457613f6c613f66600285018390612844565b9061288b565b613f7f575b613f7a90611dfe565b613f3b565b93613f8c613f7a91612375565b949050613f71565b5092600361400c9361400792613fa86115eb565b50613fb4838601610fcc565b613fc6613fc05f611bf7565b9161036c565b146140b5575b613fdf613fd96019611cc4565b9161036c565b145f1461400e576005613fff91613ff960018088016120bb565b016115f0565b925b01610fcc565b614a0c565b565b61401784614749565b8061402b6140256004613e85565b9161036c565b10155f146140475750600461404091016115f0565b925b614001565b8061405a61405485613ea4565b9161036c565b10155f1461407557508161406e91016115f0565b925b614042565b6140886140826002613ec3565b9161036c565b10155f146140a357600261409c91016115f0565b925b614070565b60016140af91016115f0565b9261409e565b6140e86140ca6140c5600a610fcc565b612375565b6140d581600a6123a7565b6140e033829061469b565b8487016123a7565b613fcc565b9190918261410b6141056141005f611944565b6103bb565b916103bb565b1461417f5761412f8261412a61412360058590612d57565b8690612d6d565b6120bb565b91909161417a6141686141627f17307eab39ab6107e8899845ad3d59bd9653f200f220920489ca2b5937696c3193610f65565b93610f65565b93614171610202565b91829182610273565b0390a3565b61419a835f918291630b61174360e31b8352600483016103d4565b0390fd5b6141a790610f3d565b90565b6141b39061419e565b90565b6141bf90610f59565b90565b905051906141cf82610220565b565b906020828203126141ea576141e7915f016141c2565b90565b61020c565b60209181520190565b6142176142206020936142259361420e81612c41565b938480936141ef565b958691016102d9565b6102e4565b0190565b909261425c90614252614269969461424860808601975f8701906103c7565b60208501906103c7565b6040830190610c58565b60608184039101526141f8565b90565b9061427e6142798361135c565b6107e3565b918252565b606090565b3d5f146142a3576142983d61426c565b903d5f602084013e5b565b6142ab614283565b906142a1565b9193843b6142c76142c15f611bf7565b9161036c565b116142d4575b5050505050565b61430c5f6020946143176142ef6142ea8a6141aa565b6141b6565b9463150b7a02929698614300610202565b998a9889978896611579565b865260048601614229565b03925af180915f926143d5575b50155f146143925750600161433f57505b5f808080806142cd565b614347614288565b9061435182612c41565b61436361435d5f611bf7565b9161036c565b145f1461438957614385905f918291633250574960e11b8352600483016103d4565b0390fd5b50602081519101fd5b6143ab6143a5630a85bd0160e11b610214565b91610214565b036143b65750614335565b6143d1905f918291633250574960e11b8352600483016103d4565b0390fd5b6143f791925060203d81116143fe575b6143ef81836107ba565b8101906141d1565b905f614324565b503d6143e5565b61440d611a71565b90565b6144186115eb565b50614421614405565b90565b61442c6115eb565b5061443681613b8e565b5061443f614410565b9061445161444c83612c3e565b612c41565b61446361445d5f611bf7565b9161036c565b115f146144815761447761447d9291614aed565b90612c8a565b5b90565b505061448b614405565b61447e565b614498611572565b506144b26144ac6301ffc9a760e01b610214565b91610214565b1490565b6144cd6144d2916144c5611611565b506002613be4565b610fab565b90565b9190928080156145fc575b6144fe575b5050906144f76144fc92916004613be4565b611b1a565b565b61450784613b8e565b918061452361451d6145185f611944565b6103bb565b916103bb565b1415806145e1575b806145c7575b6145a85750916144f7916144fc949361454d575b5091926144e5565b81849061458c6145866145807f8c5be1e5ebec7d5bd14f71427d1e84f3dd0314c0f7b2291e5b200ac8c7c3b92595610f65565b92610f65565b92611eb8565b92614595610202565b8061459f8161046e565b0390a45f614545565b6145c3905f91829163a9fbf51f60e01b8352600483016103d4565b0390fd5b506145dc6145d6848390612d83565b15610261565b614531565b50826145f56145ef836103bb565b916103bb565b141561452b565b508161461861461261460d5f611944565b6103bb565b916103bb565b14156144e0565b61463461462e82848691614b96565b15610261565b61463d57505050565b61465761465161464c5f611944565b6103bb565b916103bb565b145f1461467d57614679825f918291637e27328960e01b835260048301610c65565b0390fd5b6146975f92839263177e802f60e01b845260048401610fff565b0390fd5b906146af91906146a9611a7d565b91614c36565b565b90565b6146c86146c36146cd926146b1565b610f3a565b61036c565b90565b6146df6146e59193929361036c565b9261036c565b916146f183820261036c565b92818404149015171561470057565b611dc2565b61471461471a9193929361036c565b9261036c565b820180921161472557565b611dc2565b90565b61474161473c6147469261472a565b610f3a565b61036c565b90565b614751611ef9565b5061475b5f611bf7565b6147645f611bf7565b915b8261477a61477460056146b4565b9161036c565b10156148305760019361478c5f611bf7565b5b806147a161479b60056146b4565b9161036c565b1015614827576147e46147de6147d8600286016147d26147cb8a6147c560056146b4565b906146d0565b8690614705565b90612844565b9061288b565b15610261565b6147f6576147f190611dfe565b61478d565b50929093505f5b614812575b61480b90611dfe565b9192614766565b9061481f61480b91612375565b919050614802565b509290936147fd565b915061483b5f611bf7565b915b8261485161484b60056146b4565b9161036c565b1015614907576001936148635f611bf7565b5b8061487861487260056146b4565b9161036c565b10156148fe576148bb6148b56148af600286016148a96148a28661489c60056146b4565b906146d0565b8a90614705565b90612844565b9061288b565b15610261565b6148cd576148c890611dfe565b614864565b50929093505f5b6148e9575b6148e290611dfe565b919261483d565b906148f66148e291612375565b9190506148d9565b509290936148d4565b9290915060019160016149195f611bf7565b5b8061492e61492860056146b4565b9161036c565b10156149dc5761496761496161495b600289016149558561494f600661472d565b906146d0565b90612844565b9061288b565b15610261565b6149d3575b6149b26149ac6149a6600289016149a06149908661498a6001611da6565b90614705565b61499a6004613e85565b906146d0565b90612844565b9061288b565b15610261565b6149c5575b6149c090611dfe565b61491a565b90506149c05f9190506149b7565b93505f9361496c565b50919350916149fc575b6149ee575b90565b6149f790612375565b6149eb565b90614a0690612375565b906149e6565b90614a2290614a1d60068490612c28565b61207d565b614a587ff8e1a15aba9398e019f0b49df1a4fde98ee17ae345cb5f6b5e2c27f5033e8ce791614a4f610202565b91829182610c65565b0390a1565b369037565b90614a87614a6f83611a5a565b92602080614a7d8693610825565b9201910390614a5d565b565b6001614a95910361036c565b90565b90565b614aaf614aaa614ab492614a98565b610f3a565b61036c565b90565b634e487b7160e01b5f52601260045260245ffd5b614ad7614add9161036c565b9161036c565b908115614ae8570490565b614ab7565b614af56115eb565b50614b12614b0282614d9a565b614b0c6001611da6565b90613c44565b90614b1c82614a62565b91614b25611ef9565b5060208301015b600115614b8f57614b3f614b6b91614a89565b916f181899199a1a9b1b9c1cb0b131b232b360811b600a82061a8353614b65600a614a9b565b90614acb565b80614b7e614b785f611bf7565b9161036c565b14614b895790614b2c565b50505b90565b5050614b8c565b9190614ba0611572565b5080614bbc614bb6614bb15f611944565b6103bb565b916103bb565b14159283614bcb575b50505090565b8091929350614be2614bdc846103bb565b916103bb565b14908115614c24575b50918215614bfe575b50505f8080614bc5565b614c1c919250614c10614c1691613bfa565b926103bb565b916103bb565b145f80614bf4565b614c3091508290612d83565b5f614beb565b9091614c6292614c47838290614ffb565b614c4f613c19565b92614c595f611944565b909192936142b1565b565b90565b614c7b614c76614c8092614c64565b610f3a565b61036c565b90565b90565b614c9a614c95614c9f92614c83565b610f3a565b61036c565b90565b90565b614cb9614cb4614cbe92614ca2565b610f3a565b61036c565b90565b90565b614cd8614cd3614cdd92614cc1565b610f3a565b61036c565b90565b90565b614cf7614cf2614cfc92614ce0565b610f3a565b61036c565b90565b90565b614d16614d11614d1b92614cff565b610f3a565b61036c565b90565b90565b614d35614d30614d3a92614d1e565b610f3a565b61036c565b90565b90565b614d54614d4f614d5992614d3d565b610f3a565b61036c565b90565b90565b614d73614d6e614d7892614d5c565b610f3a565b61036c565b90565b90565b614d92614d8d614d9792614d7b565b610f3a565b61036c565b90565b614da2611ef9565b50614dac5f611bf7565b9080614ddb614dd57a184f03e93ff9f4daa797ed6e38ed64bf6a1f010000000000000000614c67565b9161036c565b1015614fb3575b80614e03614dfd6d04ee2d6d415b85acef8100000000614ca5565b9161036c565b1015614f78575b80614e24614e1e662386f26fc10000614ce3565b9161036c565b1015614f44575b80614e42614e3c6305f5e100614d21565b9161036c565b1015614f13575b80614e5e614e58612710614d5f565b9161036c565b1015614ee4575b80614e79614e736064614d7e565b9161036c565b1015614eb6575b614e93614e8d600a614a9b565b9161036c565b1015614e9d575b90565b614eb190614eab6001611da6565b90613c44565b614e9a565b614ecd614ede91614ec76064614d7e565b90614acb565b91614ed86002613ec3565b90613c44565b90614e80565b614efc614f0d91614ef6612710614d5f565b90614acb565b91614f076004613e85565b90613c44565b90614e65565b614f2d614f3e91614f276305f5e100614d21565b90614acb565b91614f386008614d40565b90613c44565b90614e49565b614f61614f7291614f5b662386f26fc10000614ce3565b90614acb565b91614f6c6010614d02565b90613c44565b90614e2b565b614f9c614fad91614f966d04ee2d6d415b85acef8100000000614ca5565b90614acb565b91614fa76020614cc4565b90613c44565b90614e0a565b614fe4614ff591614fde7a184f03e93ff9f4daa797ed6e38ed64bf6a1f010000000000000000614c67565b90614acb565b91614fef6040614c86565b90613c44565b90614de2565b908161501761501161500c5f611944565b6103bb565b916103bb565b1461507857615030919061502a5f611944565b91613c52565b61504a61504461503f5f611944565b6103bb565b916103bb565b0361505157565b61507461505d5f611944565b5f9182916339e3563760e11b8352600483016103d4565b0390fd5b61509b6150845f611944565b5f918291633250574960e11b8352600483016103d4565b0390fdfea2646970667358221220d529a08c012ce9bf6fca0c06a89d06cbb54d34049ce98df3e91d4b4a94b3251064736f6c634300081e0033",
    "linkReferences": {}
  },
  "methodIdentifiers": {
    "addBingoBoard((string,bool)[],string,string,string,string,string)": "4df90874",
    "addUser()": "455c928c",
    "approve(address,uint256)": "095ea7b3",
    "assignBoardToUser(uint256)": "5853eede",
    "balanceOf(address)": "70a08231",
    "bingoBoards(uint256)": "b80a70d9",
    "checkMemberExists(address)": "324ddb15",
    "getApproved(uint256)": "081812fc",
    "getBingoBoard(uint256)": "11ea20e6",
    "getMemberList()": "5f5d5f00",
    "getUserBingoBoard(uint256)": "f21e95f0",
    "getUserBoardStatus(uint256)": "70ae0d24",
    "getUserTokenURI(uint256)": "7090a4c1",
    "isApprovedForAll(address,address)": "e985e9c5",
    "markItemCompleted(uint256,uint256)": "975d54c0",
    "memberList(uint256)": "b307fc6d",
    "name()": "06fdde03",
    "nextTokenId()": "75794a3c",
    "owner()": "8da5cb5b",
    "ownerOf(uint256)": "6352211e",
    "renounceOwnership()": "715018a6",
    "safeTransferFrom(address,address,uint256)": "42842e0e",
    "safeTransferFrom(address,address,uint256,bytes)": "b88d4fde",
    "setApprovalForAll(address,bool)": "a22cb465",
    "supportsInterface(bytes4)": "01ffc9a7",
    "symbol()": "95d89b41",
    "tokenURI(uint256)": "c87b56dd",
    "transferFrom(address,address,uint256)": "23b872dd",
    "transferOwnership(address)": "f2fde38b",
    "users(address)": "a87430ba"
  },
  "storageLayout": {
    "storage": [
      {
        "astId": 349,
        "contract": "src/BingoBadge.sol:BingoBadge",
        "label": "_name",
        "offset": 0,
        "slot": "0",
        "type": "t_string_storage"
      },
      {
        "astId": 351,
        "contract": "src/BingoBadge.sol:BingoBadge",
        "label": "_symbol",
        "offset": 0,
        "slot": "1",
        "type": "t_string_storage"
      },
      {
        "astId": 355,
        "contract": "src/BingoBadge.sol:BingoBadge",
        "label": "_owners",
        "offset": 0,
        "slot": "2",
        "type": "t_mapping(t_uint256,t_address)"
      },
      {
        "astId": 359,
        "contract": "src/BingoBadge.sol:BingoBadge",
        "label": "_balances",
        "offset": 0,
        "slot": "3",
        "type": "t_mapping(t_address,t_uint256)"
      },
      {
        "astId": 363,
        "contract": "src/BingoBadge.sol:BingoBadge",
        "label": "_tokenApprovals",
        "offset": 0,
        "slot": "4",
        "type": "t_mapping(t_uint256,t_address)"
      },
      {
        "astId": 369,
        "contract": "src/BingoBadge.sol:BingoBadge",
        "label": "_operatorApprovals",
        "offset": 0,
        "slot": "5",
        "type": "t_mapping(t_address,t_mapping(t_address,t_bool))"
      },
      {
        "astId": 1438,
        "contract": "src/BingoBadge.sol:BingoBadge",
        "label": "_tokenURIs",
        "offset": 0,
        "slot": "6",
        "type": "t_mapping(t_uint256,t_string_storage)"
      },
      {
        "astId": 8,
        "contract": "src/BingoBadge.sol:BingoBadge",
        "label": "_owner",
        "offset": 0,
        "slot": "7",
        "type": "t_address"
      },
      {
        "astId": 6745,
        "contract": "src/BingoBadge.sol:BingoBadge",
        "label": "users",
        "offset": 0,
        "slot": "8",
        "type": "t_mapping(t_address,t_struct(User)6740_storage)"
      },
      {
        "astId": 6749,
        "contract": "src/BingoBadge.sol:BingoBadge",
        "label": "bingoBoards",
        "offset": 0,
        "slot": "9",
        "type": "t_array(t_struct(BingoBoard)6719_storage)dyn_storage"
      },
      {
        "astId": 6751,
        "contract": "src/BingoBadge.sol:BingoBadge",
        "label": "nextTokenId",
        "offset": 0,
        "slot": "10",
        "type": "t_uint256"
      },
      {
        "astId": 6754,
        "contract": "src/BingoBadge.sol:BingoBadge",
        "label": "memberList",
        "offset": 0,
        "slot": "11",
        "type": "t_array(t_address)dyn_storage"
      }
    ],
    "types": {
      "t_address": {
        "encoding": "inplace",
        "label": "address",
        "numberOfBytes": "20"
      },
      "t_array(t_address)dyn_storage": {
        "encoding": "dynamic_array",
        "label": "address[]",
        "numberOfBytes": "32",
        "base": "t_address"
      },
      "t_array(t_bool)25_storage": {
        "encoding": "inplace",
        "label": "bool[25]",
        "numberOfBytes": "32",
        "base": "t_bool"
      },
      "t_array(t_struct(BingoBoard)6719_storage)dyn_storage": {
        "encoding": "dynamic_array",
        "label": "struct BingoBadge.BingoBoard[]",
        "numberOfBytes": "32",
        "base": "t_struct(BingoBoard)6719_storage"
      },
      "t_array(t_struct(BingoItem)6704_storage)dyn_storage": {
        "encoding": "dynamic_array",
        "label": "struct BingoBadge.BingoItem[]",
        "numberOfBytes": "32",
        "base": "t_struct(BingoItem)6704_storage"
      },
      "t_bool": {
        "encoding": "inplace",
        "label": "bool",
        "numberOfBytes": "1"
      },
      "t_mapping(t_address,t_bool)": {
        "encoding": "mapping",
        "key": "t_address",
        "label": "mapping(address => bool)",
        "numberOfBytes": "32",
        "value": "t_bool"
      },
      "t_mapping(t_address,t_mapping(t_address,t_bool))": {
        "encoding": "mapping",
        "key": "t_address",
        "label": "mapping(address => mapping(address => bool))",
        "numberOfBytes": "32",
        "value": "t_mapping(t_address,t_bool)"
      },
      "t_mapping(t_address,t_struct(User)6740_storage)": {
        "encoding": "mapping",
        "key": "t_address",
        "label": "mapping(address => struct BingoBadge.User)",
        "numberOfBytes": "32",
        "value": "t_struct(User)6740_storage"
      },
      "t_mapping(t_address,t_uint256)": {
        "encoding": "mapping",
        "key": "t_address",
        "label": "mapping(address => uint256)",
        "numberOfBytes": "32",
        "value": "t_uint256"
      },
      "t_mapping(t_uint256,t_address)": {
        "encoding": "mapping",
        "key": "t_uint256",
        "label": "mapping(uint256 => address)",
        "numberOfBytes": "32",
        "value": "t_address"
      },
      "t_mapping(t_uint256,t_string_storage)": {
        "encoding": "mapping",
        "key": "t_uint256",
        "label": "mapping(uint256 => string)",
        "numberOfBytes": "32",
        "value": "t_string_storage"
      },
      "t_mapping(t_uint256,t_struct(UserBingoBoard)6730_storage)": {
        "encoding": "mapping",
        "key": "t_uint256",
        "label": "mapping(uint256 => struct BingoBadge.UserBingoBoard)",
        "numberOfBytes": "32",
        "value": "t_struct(UserBingoBoard)6730_storage"
      },
      "t_string_storage": {
        "encoding": "bytes",
        "label": "string",
        "numberOfBytes": "32"
      },
      "t_struct(BingoBoard)6719_storage": {
        "encoding": "inplace",
        "label": "struct BingoBadge.BingoBoard",
        "numberOfBytes": "192",
        "members": [
          {
            "astId": 6708,
            "contract": "src/BingoBadge.sol:BingoBadge",
            "label": "items",
            "offset": 0,
            "slot": "0",
            "type": "t_array(t_struct(BingoItem)6704_storage)dyn_storage"
          },
          {
            "astId": 6710,
            "contract": "src/BingoBadge.sol:BingoBadge",
            "label": "stage1_url",
            "offset": 0,
            "slot": "1",
            "type": "t_string_storage"
          },
          {
            "astId": 6712,
            "contract": "src/BingoBadge.sol:BingoBadge",
            "label": "stage2_url",
            "offset": 0,
            "slot": "2",
            "type": "t_string_storage"
          },
          {
            "astId": 6714,
            "contract": "src/BingoBadge.sol:BingoBadge",
            "label": "stage3_url",
            "offset": 0,
            "slot": "3",
            "type": "t_string_storage"
          },
          {
            "astId": 6716,
            "contract": "src/BingoBadge.sol:BingoBadge",
            "label": "stage4_url",
            "offset": 0,
            "slot": "4",
            "type": "t_string_storage"
          },
          {
            "astId": 6718,
            "contract": "src/BingoBadge.sol:BingoBadge",
            "label": "completed_url",
            "offset": 0,
            "slot": "5",
            "type": "t_string_storage"
          }
        ]
      },
      "t_struct(BingoItem)6704_storage": {
        "encoding": "inplace",
        "label": "struct BingoBadge.BingoItem",
        "numberOfBytes": "64",
        "members": [
          {
            "astId": 6701,
            "contract": "src/BingoBadge.sol:BingoBadge",
            "label": "data",
            "offset": 0,
            "slot": "0",
            "type": "t_string_storage"
          },
          {
            "astId": 6703,
            "contract": "src/BingoBadge.sol:BingoBadge",
            "label": "completed",
            "offset": 0,
            "slot": "1",
            "type": "t_bool"
          }
        ]
      },
      "t_struct(User)6740_storage": {
        "encoding": "inplace",
        "label": "struct BingoBadge.User",
        "numberOfBytes": "96",
        "members": [
          {
            "astId": 6732,
            "contract": "src/BingoBadge.sol:BingoBadge",
            "label": "userAddress",
            "offset": 0,
            "slot": "0",
            "type": "t_address"
          },
          {
            "astId": 6737,
            "contract": "src/BingoBadge.sol:BingoBadge",
            "label": "userBoards",
            "offset": 0,
            "slot": "1",
            "type": "t_mapping(t_uint256,t_struct(UserBingoBoard)6730_storage)"
          },
          {
            "astId": 6739,
            "contract": "src/BingoBadge.sol:BingoBadge",
            "label": "boardCount",
            "offset": 0,
            "slot": "2",
            "type": "t_uint256"
          }
        ]
      },
      "t_struct(UserBingoBoard)6730_storage": {
        "encoding": "inplace",
        "label": "struct BingoBadge.UserBingoBoard",
        "numberOfBytes": "128",
        "members": [
          {
            "astId": 6721,
            "contract": "src/BingoBadge.sol:BingoBadge",
            "label": "boardIndex",
            "offset": 0,
            "slot": "0",
            "type": "t_uint256"
          },
          {
            "astId": 6723,
            "contract": "src/BingoBadge.sol:BingoBadge",
            "label": "completed",
            "offset": 0,
            "slot": "1",
            "type": "t_bool"
          },
          {
            "astId": 6727,
            "contract": "src/BingoBadge.sol:BingoBadge",
            "label": "completedItems",
            "offset": 0,
            "slot": "2",
            "type": "t_array(t_bool)25_storage"
          },
          {
            "astId": 6729,
            "contract": "src/BingoBadge.sol:BingoBadge",
            "label": "tokenId",
            "offset": 0,
            "slot": "3",
            "type": "t_uint256"
          }
        ]
      },
      "t_uint256": {
        "encoding": "inplace",
        "label": "uint256",
        "numberOfBytes": "32"
      }
    }
  },
  "id": 19
}